:020000040800F2
:10000000B808002001010008FB090008F3090008F6
:10001000F7090008CD0800087B190008000000005F
:100020000000000000000000000000009510000823
:10003000D1080008000000007F0F000885120008AA
:100040001B0100081B0100081B0100081B01000820
:100050001B0100081B0100081B0100081B01000810
:100060001B0100081B0100081B0100081B01000800
:100070001B0100081B0100081B0100081B010008F0
:100080001B0100081B0100081B0100081B010008E0
:100090001B0100081B0100081B0100081B010008D0
:1000A0001B0100081B0100081B0100081B010008C0
:1000B0001B010008611300081B0100081B01000858
:1000C0001B0100081B0100081B0100081B010008A0
:1000D0001B0100081B0100081B010008CD150008CA
:1000E0001B0100081B0100081B010008DFF80CD0F1
:1000F00000F0DAFB0048004731230008B808002070
:100100000648804706480047FEE7FEE7FEE7FEE7B1
:10011000FEE7FEE7FEE7FEE7FEE7FEE789120008DE
:10012000ED000008F0B480EA0102D40F4200B2EB07
:10013000410F02D20246084611464A0042D0C30D82
:10014000DDB2C1F3C752AD1A202D35DAC1F3160165
:1001500041F4000204B15242C5F1200602FA06F150
:100160002A411044B3EBD05F23D0C4B1012DA0EBE2
:10017000C35009DCF0BC4FF0004202EAC352DBB2CC
:1001800000F5000000F0EDBA400000F1807000EBD7
:10019000C350A0F1807040EAD170490009E04908DD
:1001A00041EAC071A0EBC35000F50000400800EB2D
:1001B000C350F0BC00F0CCBA6142012202EB410115
:1001C000001BF6E7F0BC704781F00041AAE780F021
:1001D0000040A7E780EA010210B502F000434000AA
:1001E00022D04A001FD0010E01EB1261C0F356006D
:1001F000C2F3560240F4000042F40002A0FB0220C9
:1002000000047F39140400D0401C50EA124001D48D
:100210004000491EC2B20C0604EBD010401C40083E
:10022000802A02D003E0002010BD20F00100002948
:1002300000DA0020184310BD30B480EA010202F059
:10024000004530F0004221F0004013D090B1C30DC2
:10025000D40DC2F31601C0F31600E41A41F40001F4
:1002600040F400027D34914201D3641C00E0490057
:10027000002C02DA30BC002070474FF4000000234D
:10028000914201D3891A034340084FEA4101F7D153
:1002900051B1914202D14FF0004105E002D24FF03E
:1002A000010101E06FF0010103EBC450284430BCB0
:1002B00000F04EBA2DE9FE4F804681EA0300C00FE0
:1002C0000C46009021F0004123F00045B8EB0200FD
:1002D000A94105D24046214690461C460B4602469F
:1002E00023F00040104347D0270DC7F30A00C3F3A3
:1002F0000A510290401A019040286BDAC3F31300B0
:1003000040F4801B0098924620B10023D2EB030AF0
:1003100063EB0B0B01985946C0F14002504600F0C8
:10032000E6F906460D4650465946019A00F0FEF998
:1003300010EB08006141002487EA115284EAE77358
:100340001A4340D0009A62B3019A012A4FEA075239
:1003500015DC001B61EB02014FF0004202EA07527C
:10036000CDE90042001C41F5801132462B4600F0D9
:1003700035FA03B0BDE8F08F40462146F9E7001B8F
:1003800061EB0201001C41F5801300185B4120184D
:10039000A2F5001747EB030140EAD570B6196D418D
:1003A00011E06D084FEA360645EAC0754FEA07527C
:1003B000001B61EB0201001C41F5801149084FEA66
:1003C00030000019514132462B4603B0BDE8F04FD2
:1003D00000F0F5B90098012240000023D0EB0202A2
:1003E00063EBE073009821464FEAE074B8EB00003D
:1003F00061EB0401E9E783F000435BE781F0004132
:1004000058E72DE9FE4F81EA030404F0004421F08F
:10041000004100944FF0000B23F0004350EA010428
:100420005ED052EA03045BD0C3F30A54C1F30A5509
:100430002C44A4F2F3340194A0FB0254C1F3130141
:1004400041F48011C3F3130343F4801301FB02440E
:1004500000FB034E840A970A44EA815447EA835713
:10046000A4FB076802958D0A05FB07854FEA932CCC
:1004700004FB0C542705029D4FEA065847EA16373D
:10048000B5EB08056EEB070C870E920E47EA811755
:1004900042EA8312A7FB0201B6EB0B0164EB0004F6
:1004A0002B0D43EA0C335E1844EB1C50DA465146E0
:1004B000E7FB0201C5F313044FEA0B3343EA14537D
:1004C0004FEA0432019C43EA0603A4F10C040294AF
:1004D000009CCDE900B400F081F903B0BDE8F08FD5
:1004E00000200146F9E72DE9F04D81EA030404F00C
:1004F000004B21F0004514464FF0000A23F0004164
:1005000050EA050220D054EA01021DD0C5F30A5773
:100510000246C5F31303C1F31300C1F30A5640F4B6
:10052000801543F48013A7EB0608101BD64608F28B
:10053000FD3873EB050002D308F1010801E09218C1
:100540005B41B8F1000F03DA00200146BDE8F08DF1
:1005500000204FF48011064684460EE0171B73EB13
:10056000050705D3121B63EB050306434CEA010C98
:1005700049084FEA300092185B4150EA0107EDD17B
:1005800052EA030012D082EA040083EA050108431C
:1005900005D0101BAB4106D20122002306E0002249
:1005A0004FF0004302E06FF0010253101AEB060017
:1005B0004CEB085110EB0A0041EB0B01BDE8F04D8C
:1005C00000F0FDB8C10F80EAE0700844CA07962326
:1005D000002100F0C6B800F0004220F00040C10D3C
:1005E000C0F3160040F400007F2901DA00207047B4
:1005F000962903DCC1F19601C84001E09639884094
:10060000002AF4D04042704720F00040C10DC0F3F2
:10061000160040F400007F2901DA00207047962977
:1006200003DCC1F19601C840704796398840704795
:1006300030B5041E71F1000404DB4FF00044404269
:1006400064EB0101141E73F1000405DB1C464FF03E
:100650000043524263EB0403994208BF904230BD0D
:1006600030B50B46014600202022012409E021FA82
:1006700002F59D4205D303FA02F5491B04FA02F57F
:100680002844151EA2F10102F1DC30BD2DE9F05F16
:100690000546002092469B468846064681464024F1
:1006A0001BE0284641464746224600F02FF85346B5
:1006B0005A46C01A914110D311461846224600F0FE
:1006C00016F82D1A67EB01084F462246012000213B
:1006D00000F00DF817EB00094E41201EA4F10104B3
:1006E000DFDC484631462A464346BDE8F09F202AD3
:1006F00004DB203A00FA02F1002070479140C2F179
:10070000200320FA03F3194390407047202A04DBAA
:10071000203A21FA02F00021704721FA02F3D0407A
:10072000C2F120029140084319467047202A06DB97
:10073000CB17203A41FA02F043EAE07306E041FAAF
:1007400002F3D040C2F1200291400843194670479D
:100750000029A8BF7047401C490008BF20F00100D5
:10076000704710B4B0FA80FC00FA0CF050EA0104B3
:1007700004BF10BC704749B1CCF1200421FA04F445
:1007800011FA0CF118BF012121430843A3EB0C011E
:10079000CB1D4FEA00614FEA102042BF002010BC81
:1007A000704700EBC35010440029A4BF10BC704731
:1007B000401C490008BF20F0010010BC704710B574
:1007C000141E73F1000408DA401C41F10001921874
:1007D0005B411A4301D120F0010010BD2DE9F04D1D
:1007E00092469B4611B1B1FA81F202E0B0FA80F272
:1007F00020329046FFF77BFF04460F4640EA0A008E
:1008000041EA0B0153465A46084313D0114653EAB6
:10081000010019D0C8F140025046FFF777FF0546A6
:100820000E46504659464246FFF761FF084305D041
:10083000012004E020463946BDE8F08D0020054344
:1008400046EAE0762C4337430A986305E40AA0EBB6
:1008500008000022FD0A44EA47540A3002D500206D
:100860000146E9E7010510196941DDE9084500196C
:100870006941BDE8F04DA2E7C1F30A52C1F313018B
:1008800040F2FF3341F480119A4202DA002001461F
:10089000704740F233439A42A2F2334202DC5242A2
:1008A000FFF734BFFFF723BF064C074D06E0E068B3
:1008B00040F0010394E8070098471034AC42F6D3A7
:1008C000FFF718FC342D0008542D000800BFFEE788
:1008D00070472DE9F0410246002500260020002344
:1008E0000024002791F803C00CF00F0591F803C015
:1008F0000CF0100CBCF1000F03D091F802C04CEAD0
:10090000050591F800C0BCF1000F31D0146800203B
:100910002BE04FF0010C0CFA00F3B1F800C00CEA28
:1009200003069E4220D183004FF00F0C0CFA03F710
:10093000BC4305FA03FC4CEA040491F803C0BCF183
:10094000280F06D14FF0010C0CFA00FCC2F814C0BD
:100950000AE091F803C0BCF1480F05D14FF0010C3B
:100960000CFA00FCC2F810C0401C0828D1D3146057
:10097000B1F800C0BCF1FF0F34DD546800202EE058
:1009800000F1080C4FF0010808FA0CF3B1F800C0B0
:100990000CEA03069E4221D183004FF00F0C0CFAA3
:1009A00003F7BC4305FA03FC4CEA040491F803C0C6
:1009B000BCF1280F05D100F1080C08FA0CF8C2F8B8
:1009C000148091F803C0BCF1480F07D100F1080C66
:1009D0004FF0010808FA0CF8C2F81080401C0828F3
:1009E000CED35460BDE8F0810AB1016100E04161FD
:1009F000704700BFFEE700BFFEE7704770B50021FB
:100A000000230F22C47804B3154C246804F4E06476
:100A1000C4F5E064210AC1F10403CA40447804FA31
:100A200003F184781440214309010E4C0678A15546
:100A3000047804F01F050124AC4005786D11AD0069
:100A400005F1E025C5F8004109E0047804F01F0530
:100A50000124AC40044D0678761145F8264070BD5F
:100A60000CED00E000E400E080E100E00249014319
:100A7000024A1160704700000000FA050CED00E02A
:100A800000200CE0002106E00022064B03EBC0131F
:100A90005A544A1CD1B28029F6DB421CD0B2082835
:100AA000F0DB7047540000202DE9F04304460D466A
:100AB00016461F46284638E0224631E0002A2DDB44
:100AC0007F2A2BDC002829DB3F2827DC4FEAE07C4B
:100AD00000EB5C7C4FEAEC0CDFF8588008EBCC1C98
:100AE0001CF802C003464FEAE07800EB58784FEA62
:100AF000E808A0EBC8094FF0010808FA09F82CEA49
:100B0000080C01464FEAE07800EB58784FEAE80815
:100B1000DFF8209009EBC81808F802C0511C0AB28F
:100B2000A1199142CADC411C08B2E9198142C3DC17
:100B3000BDE8F0835400002038B5002406E000250D
:100B400000E06D1CB5F57A7FFBD3641CB4F57A7FA9
:100B5000F5D30121082000F023FA14208DF80300BA
:100B600003208DF802000120ADF800006946084816
:100B7000FFF7AFFE0220ADF8000069460448FFF71A
:100B8000A8FE012000F0C0F9012000F0C7F938BD2F
:100B9000000C014070B50546002411E08021214180
:100BA000294009B1012100E00021084600F0B6F912
:100BB000012000F0A9F9002000F0A6F9601CC4B2E1
:100BC000082CEBDB012000F09FF9002000F09CF9DD
:100BD00070BD10B5012000F0A1F9012000F094F9DA
:100BE000002000F09BF9002000F08EF910BD10B538
:100BF000002000F093F9012000F086F9012000F0B8
:100C00008DF910BD10B5FFF797FFAE2000F090F9F9
:100C1000D52000F08DF9802000F08AF9A82000F09E
:100C200087F93F2000F084F9D32000F081F90020FB
:100C300000F07EF9402000F07BF9A12000F078F967
:100C4000C82000F075F9DA2000F072F9122000F0E7
:100C50006FF9812000F06CF9CF2000F069F9D920FC
:100C600000F066F9F12000F063F9DB2000F060F994
:100C7000302000F05DF9A42000F05AF9A62000F021
:100C800057F98D2000F054F9142000F051F9AF20ED
:100C900000F04EF9FFF7F4FE00F022F910BD10B598
:100CA0000246012000E050430B1EA1F10101FAD1E0
:100CB00010BD70B505460C4645F0B00000F038F99F
:100CC000102141EA141000F033F904F00F0000F095
:100CD0002FF970BDF8B506460F4614461D46082D7F
:100CE0000CD1A4F120000E4901EB001010230822C2
:100CF00039460090304600F017F80FE0062D0DD170
:100D0000A4F1200000EB4000064901EB400008235D
:100D1000062239460090304600F006F8F8BD000083
:100D200008250008F82A00082DE9FF4F80460E46E6
:100D30009146DDF834B0002500244A46314640464D
:100D4000039BFFF7B1FE00BF5EE0002558E008EB13
:100D50000500002852DB08EB05007F284EDC3046FA
:100D6000F11706EB5171C9100FB2F11706EB517173
:100D7000C910A6EBC10A002E05DA781E07B20AF1E7
:100D800008000FFA80FA3819002817DB38190728ED
:100D900014DC3819224901EBC01008EB0501405C56
:100DA00004FB09511BF8011001FA0AF10843391933
:100DB0001B4A02EBC11108EB050288543819401C8C
:100DC00000281BDB3819401C072817DC3819401C89
:100DD000134901EBC01008EB0501405C04FB09510D
:100DE0001BF80110CAF10802114108433919491CC6
:100DF0000B4A02EBC11108EB05028854681CC5B20E
:100E00004D45A4DB601CC4B20399481EC11700EB1A
:100E10005171012202EBE101A14296DCBDE8FF8F96
:100E2000540000202DE9F0470646894617461D4626
:100E3000DDF82080002417E0281B411E0A20FFF760
:100E40002EFFB7FBF0F00A21B0FBF1F201FB12001C
:100E500000F1300A04FB086108B243465246494695
:100E6000FFF738FF601CC4B2AC42E5DBBDE8F08799
:100E70002DE9F04F80468A4615461E46DDF824903F
:100E8000002D07DB4B462B2251464046FFF722FF41
:100E90002F4606E04B462D2251464046FFF71AFFEB
:100EA0006F42002418E0301B411E0A20FFF7F7FEB6
:100EB000B7FBF0F00A21B0FBF1F201FB120000F1E8
:100EC000300B611C01FB098108B24B465A46514662
:100ED000FFF700FF601CC4B2B442E4DBBDE8F08F52
:100EE00010B500240BE000212046FFF7E2FE054983
:100EF00001EBC410802100F02BF8601CC4B2082C58
:100F0000F1DB10BD5400002010B50446224601213B
:100F10000148FFF769FD10BD000C014010B5044603
:100F2000224602210148FFF75FFD10BD000C014081
:100F300010B50446FFF74DFE7820FFF72BFE00208A
:100F4000FFF728FE2046FFF725FEFFF750FE10BDF5
:100F500070B505460E46FFF73CFE7820FFF71AFEF7
:100F60004020FFF717FE002404E0285DFFF712FE83
:100F7000601CC4B2B442F8DBFFF739FE70BD7047A5
:100F800029B1064AD2690243044BDA6104E0034AFC
:100F9000D2698243014BDA617047000000100240C1
:100FA00029B1064A92690243044B9A6104E0034A5C
:100FB00092698243014B9A61704700000010024021
:100FC00030B500210022002400232D4D6D6805F06E
:100FD0000C0121B1042905D0082923D105E0294DB0
:100FE000056022E0274D05601FE0254D6D6805F482
:100FF0007012234D6D6805F48034022505EB924292
:101000001CB9214D554305600BE01D4D6D6805F47D
:1010100000351DB11C4D5543056002E0194D554387
:10102000056002E0174D056000BF00BF144D6D68FC
:1010300005F0F0010909154D6B5C0568DD40456060
:101040000F4D6D6805F4E061090A104D6B5C456851
:10105000DD4085600A4D6D6805F46051C90A0B4D8D
:101060006B5C4568DD40C560054D6D6805F4404129
:10107000890B074D6B5CC568B5FBF3F5056130BDA9
:101080000010024000127A0000093D00000000201C
:10109000100000207047000010B5044621460548A6
:1010A00000F067FC00BF8021024800F094FB00289C
:1010B000F9D010BD0048004010B50246002309B920
:1010C000012006E0012302E050435C1CE3B28B42A6
:1010D000FAD310BD08B501210420FFF761FF0121FB
:1010E0000820FFF75DFF0C20ADF8000018208DF8F8
:1010F000030003208DF8020069460248FFF7E9FB70
:1011000008BD00000008014010B5FFF7E3FF4721CC
:1011100042F20F7000F0E8F810BD00002DE9F04138
:1011200004460B492046FFF787F880460949FFF738
:1011300051F807460849FEF7F5FF0646FFF764FA3F
:1011400085B229464FF0804000F0EBF9BDE8F08110
:10115000000034430000E144000016442DE9F04152
:1011600004460B492046FFF767F880460949FFF718
:1011700031F807460849FEF7D5FF0646FFF744FA5F
:1011800085B229464FF0804000F0C9F9BDE8F081F2
:10119000000034430000E1440000164410B500F0A4
:1011A00001F810BD0CB50020019000903348006894
:1011B00040F480303149086000BF3048006800F4D6
:1011C000003000900198401C0190009818B90198D7
:1011D000B0F5A06FF1D12948006800F4003010B1DB
:1011E0000120009001E0002000900098012843D1E8
:1011F0002348006840F01000214908600846006854
:1012000020F0030008600846006840F00200086013
:101210001A484068194948600846406848600846CE
:10122000406840F4806048600846406820F47C10C4
:1012300048600846406840F4E81048600846006886
:1012400040F08070086000BF0C48006800F000703B
:101250000028F9D00948406820F003000749486099
:101260000846406840F00200486000BF03484068FC
:1012700000F00C000828F9D10CBD0000001002405D
:10128000002002407047000010B51348006840F08D
:1012900001001149086008464068104908400E499D
:1012A0004860084600680E4908400B490860084637
:1012B000006820F4802008600846406820F4FE00A2
:1012C00048604FF41F008860FFF768FF4FF0006030
:1012D0000449086010BD0000001002400000FFF843
:1012E000FFFFF6FE08ED00E030B587B005460C467E
:1012F00001210846FFF744FEADF81450ADF8104048
:101300000020ADF81600ADF8120004A94FF080409F
:1013100000F00AF96020ADF800000120ADF80200ED
:101320000020ADF8080069464FF0804000F052F808
:1013300069464FF0804000F0A7F80821C80600F089
:1013400099F80821C80600F0DDF80121880700F0AF
:1013500015F80121880700F020F807B030BD000023
:1013600010B50121044800F024F818B10121024809
:1013700000F010F810BD00000004004021B1028808
:1013800042F08002028004E002884FF67F731A4028
:1013900002807047CA430282704721B1028842F03E
:1013A0000102028004E002884FF6FE731A400280B8
:1013B000704730B50246002000230024158A05EA54
:1013C0000103958905EA010413B10CB1012000E085
:1013D000002030BD70B5002400220023058C4FF69C
:1013E000FF6635400584028C8388848B4FF68F75A9
:1013F0002C404FF6FC752C400D882C434FF6FF55C2
:101400002A400D894FF6FF7606EA05252A434D88C6
:1014100006EA05252A43154DA84202D0144DA842DC
:101420001DD14FF2FF752A404D894FF6FF7606EA2F
:1014300005252A434FF6FF352A408D8806EA052503
:101440002A434EF6FF752B404DF6FF752B408D89D4
:1014500006EA05152B43CD8906EA05152B43838043
:101460008483CD888587028470BD0000002C0140F4
:10147000003401400A460021818B4FF6F773194072
:10148000114381837047000070B5002200230024BF
:10149000058C4EF6FF7635400584038C8488828B5C
:1014A00048F6FF752A404FF6FF452A400D884FF653
:1014B000FF7606EA05252A434DF6FF752B400D8978
:1014C00006EA05352B434D8806EA05352B430B4DBF
:1014D000A84202D00A4DA84208D14BF6FF752C4015
:1014E0008D894FF6FF7606EA85152C43848082832A
:1014F000CD88A0F84050038470BD0000002C01404E
:10150000003401400A460021818B4FF2FF731940DD
:101510004FF6FF7303EA02231943818370478187E3
:101520007047A0F840107047002202881D4B984277
:101530000ED01D4B98420BD0B0F1804F08D01B4B02
:10154000984205D01A4B984202D01A4B984204D1C7
:101550004FF68F731A404B881A43174B984207D0A7
:10156000164B984204D04FF6FF431A40CB881A43DB
:1015700002808B8883850B8803850A4B98420BD0A9
:10158000094B984208D00E4B984205D00D4B98421B
:1015900002D00D4B984201D10B7A0386012383823E
:1015A00070470000002C014000340140000400405E
:1015B00000080040000C00400010004000140040F3
:1015C00000400140004401400048014010B540F295
:1015D00025513B4800F00CF9012870D1384800F043
:1015E000C3F9C4B237480078401C36490870364801
:1015F000007848B9402C5CD134480078002858D194
:1016000001203149087054E02F480078012810D19A
:10161000782C06D102202C49087001202C49087032
:1016200047E0792C45D102202749087028490870E5
:101630003FE025480078022811D12D2C06D1032047
:101640002149087001202349087032E02B2C30D149
:1016500003201D49087002201E49087029E01A481D
:10166000007803280FD10D2C03D1042016490870EF
:101670001FE0194819490978445418480078401C5B
:101680001649087015E010480078042811D10A2C7A
:101690000FD100200C49087001200C49087000206F
:1016A0000D490E4A12788854074801780CA000F0C2
:1016B00067F940F22551024800F072F800BF10BDF2
:1016C00000480040170000201500002014000020F2
:1016D00018000020190000205404002016000020EB
:1016E000527853746174653A25640D0A0000000055
:1016F00000B587B001218804FFF742FC01210820D2
:10170000FFF74EFC4FF48060ADF8180018208DF8FC
:101710001B0002208DF81A0006A91F48FFF7D9F810
:101720004FF40060ADF8180004208DF81B0006A9E6
:101730001948FFF7CEF84FF48060FFF797F927209C
:101740008DF8040004208DF8050001208DF80600B6
:101750008DF8070001A8FFF751F94FF49640029069
:101760000020ADF80C00ADF80E00ADF81000ADF89B
:1017700014000C20ADF8120002A9084800F088F807
:10178000012240F22551054800F05CF80121034890
:1017900000F015F807B000BD000C01400048004003
:1017A00010B50022002340F66A14A14200D100BF08
:1017B0000A1201249440A3B2DC43048010BD21B17D
:1017C000828942F40052828104E082894DF6FF73DF
:1017D0001A408281704702460020B1F5007F00D197
:1017E00000BF13880B400BB1012000E000207047C0
:1017F00070B50246002400230025002040F66A163A
:10180000B14200D100BFC1F3421501F01F03012610
:1018100006FA03F3012D02D19689334006E0022D2A
:1018200002D1168A334001E0968A33400C12012619
:1018300006FA04F41688344013B10CB1012000E01C
:10184000002070BDF0B503460024002600250020CE
:1018500040F66A17B94200D100BF1846C1F34214DE
:1018600001F01F06012707FA06F5012C01D10C3003
:1018700004E0022C01D1103000E014301AB10768E6
:101880002F43076002E00768AF430760F0BD000028
:101890002DE9F04786B005460E460024A24600BF5B
:1018A000A1460027B08900B100BF2F462C8A4CF614
:1018B000FF700440F08804432C82AC894EF6F3108C
:1018C0000440B08831890843718908430443AC81DE
:1018D000AC8A4FF6FF400440B0890443AC8201A8B3
:1018E000FFF76EFB1F48874202D1DDF810A001E030
:1018F000DDF80CA0A88900F4004040B10AEBCA0052
:1019000000EB0A1031684900B0FBF1F807E00AEB80
:10191000CA0000EB0A1031688900B0FBF1F86420BE
:10192000B8FBF0F004012009642101FB1089A889AB
:1019300000F4004040B1322000EBC900B0FBF1F0F0
:1019400000F00700044308E0322000EB0910642196
:10195000B0FBF1F000F00F0004432C8106B0BDE8AD
:10196000F08700000038014001468888C0F3080075
:101970007047C1F308028280704700BFFEE7000095
:101980000FB4054B10B503A9044A029800F0DAF829
:1019900010BC5DF814FB000073220008500000200A
:1019A00002E008C8121F08C1002AFAD17047704728
:1019B000002001E001C1121F002AFBD17047000086
:1019C0002DE9FF5F82B00021DDE90430020DDDF872
:1019D00040B0034318D044F61050A2F2FF32424305
:1019E0001514119801281FD0A5EB0B00401C5FEACD
:1019F000000A4FF000064E4FDFF83891B0465046CF
:101A000015D5CAF1000413E0119801244AA3012856
:101A100001D16FEA0B010298119AC0E90031C0E9C7
:101A2000024206B0BDE8F09FCBF10000DFE70446BC
:101A30000021404A491842EB0450CDE9001012E061
:101A4000E00707D032463B4640464946FEF7D9FC00
:101A50008046894632463B4610461946FEF7D1FC81
:101A600006460F466410002CEAD1DDE90401DDE9E9
:101A70000023BAF1000F06DAFEF7C3FC42464B46DC
:101A8000FEF7BFFC05E0FEF72EFD42464B46FEF793
:101A90002AFD04460E460022284BFEF7C9FD03D856
:101AA0004FF0FF30014607E00022254B204631462B
:101AB000FEF700FCFEF7E0FE102409E0002C0ADB34
:101AC0000A220023FEF7E2FD039B30321A55641E02
:101AD00050EA0102F2D1641C039AC4F111031444C8
:101AE000119A012A03D0012208430DD10AE00843CC
:101AF00004D000204FF0110B119072E7A3EB0B05FF
:101B00006D1E0DE05B4504DD4FF0000205F101059F
:101B100004E003DA4FF00002A5F10105002AECD041
:101B200002981199C0E90231C0E9004579E7000047
:101B3000000014400000F03F300000000000F043BF
:101B40000000E03F2DE9FF4F95B09B4689460646D1
:101B500000250FE2252877D100242746F84A0121E5
:101B6000059400E0044316F8013F203B01FA03F01E
:101B70001042F7D130782A2811D06FF02F03307837
:101B8000A0F13002092A16D8059A44F0020402EBAB
:101B9000820203EB42021044761C0590EFE759F8ED
:101BA000042B0592002A03DA504244F400540590B5
:101BB00044F00204761C30782E2816D116F8010F56
:101BC00044F004042A280DD06FF02F023078A0F1E1
:101BD0003003092B09D807EB870302EB4303C7182F
:101BE000761CF3E759F8047B761C30786C280FD00C
:101BF00006DC4C2817D068280DD06A2814D104E0E0
:101C0000742810D07A280FD10DE044F400140AE0B3
:101C100044F4801401E044F440147278824202D10A
:101C200004F58014761C761C307866280BD013DC03
:101C3000582877D009DC002875D04528F6D04628EA
:101C4000F4D047281AD19DE118E0632835D06428E4
:101C500079D0652812D195E1702873D008DC672807
:101C6000F1D069286FD06E280DD06F2806D1B5E06D
:101C700073282CD0752875D0782874D05A461799B7
:101C800090476D1C75E1C4F30250022809D0032867
:101C90000DD0D9F8001004280DD00D6009F1040909
:101CA00067E1D9F80010EA17C1E90052F6E7D9F860
:101CB00000100D80F2E70D70F0E719F8041B8DF8A5
:101CC000001000208DF80100EA46012003E059F8D9
:101CD00004AB4FF0FF3061074FF0000102D40DE07C
:101CE00008F101018846B9420FDA8045F8DB1AF89D
:101CF00008100029F4D108E008F10101884681426A
:101D0000FADB1AF808100029F6D105985B46A0EB1B
:101D1000080721463846179A00F094FA284400EB49
:101D2000080507E04DE029E10DE01AF8010B5A46DD
:101D300017999047B8F10108F7D25B46214638461B
:101D4000179A13E142E00A220092C4F302524FF0C4
:101D5000000A022A08D059F804CB032A4FEAEC7192
:101D60000AD00DE029E02AE009F1070121F007027D
:101D7000F2E802C1914609E00FFA8CFC4FEAEC71DF
:101D8000042A03D14FFA8CFC4FEAEC71002907DAE0
:101D90000A460021DCF1000C61EB02012D2202E079
:101DA000220504D52B228DF80420012203E0E2074E
:101DB00001D02022F7E7904659E00A2102E01022E4
:101DC0000DE010214FF0000A00910BE010224FF0BF
:101DD000000A44F004040827009203E008224FF0B0
:101DE000000A0092C4F30252022A05D059F804CB2B
:101DF0000021032A08D009E009F1070121F00702B8
:101E0000F2E802C1914605E01FFA8CFC042A01D1D8
:101E10000CF0FF0C4FF00008220728D5702806D0E0
:101E2000009B83F0100353EA0A0305D00EE0402222
:101E30008DF80420012208E05CEA010206D030227D
:101E40008DF804208DF8050002229046009B83F057
:101E5000080353EA0A030AD15CEA010201D16207CE
:101E600005D530228DF804204FF001087F1E582838
:101E700004D034A003900EA802900DE036A0F9E73C
:101E800053466046009AFEF701FC84460398825C44
:101E90000298401E029002705CEA0100F0D10298A4
:101EA00006A9081A00F1200A600702D524F480343C
:101EB00000E00127574502DDA7EB0A0000E0002003
:101EC00000EB0A01009005984144401A0590E00398
:101ED00006D45B462146179A059800F0B3F90544ED
:101EE000002706E001A85A46C05D179990476D1C6F
:101EF0007F1C4745F6DBE0030CD55B462146179A6D
:101F0000059800F09FF9054404E030205A461799DF
:101F100090476D1C0099481E00900029F5DC08E0F0
:101F2000029802995A460078491C029117999047E5
:101F30006D1CBAF10001AAF1010AF1DC65E10000B3
:101F4000092801003031323334353637383961628F
:101F50006364656600000000303132333435363753
:101F600038394142434445460000000000F058F92A
:101F70000544761C307800287FF4ECAD19B0284673
:101F8000BDE8F08F620700D4062709F1070222F0AE
:101F9000070CFCE80223E14603F000485FEA080C66
:101FA00002D00FF2702C0DE05FEA045C02D50FF254
:101FB000682C07E05FEAC47C02D00FF2602C01E0DD
:101FC000AFF2700C4FF0FF3823F00043CDF850C053
:101FD00065280CD006DC452809D046281DD04728A6
:101FE0003DD13DE0662818D067287ED138E0002139
:101FF000112F01DB112000E0781CCDE9000106A9BA
:102000000EA8FFF7DDFCDDE90F010E9A0391002118
:10201000009207F1010A04914DE04FF00040009753
:10202000CDE9011006A90EA8FFF7CAFCDDE90F02F1
:1020300003920E9B11990022DDF80CA000930492EC
:1020400011B9791C00EB010AB7EB0A0004D4C0F106
:10205000FF3007F1010A0490AAEB0700019044E069
:10206000012F00DA01270021112F01DD112000E0EE
:102070003846CDE9000106A90EA8FFF7A1FCDDE96D
:102080000F010E9A0391002104910092BA46210794
:102090000CD40399514500DA8A46BAF1010F05DDE7
:1020A000009AAAF10101515C302908D0B84202DA45
:1020B00010F1040F06DA0121CDE9011015E0AAF1B3
:1020C0000101E9E7002805DC049901440491AAEB29
:1020D000000102E0411C514500DD8A460499401A86
:1020E000401C01904FF000400290200704D401985A
:1020F000504501DBCDF8048000208DF84F00029898
:102100000DF14F07B0F1004F25D02B200E90029813
:102110004FF0020800280CDA404202902D200E9069
:1021200007E00A210298FEF79BFA3031029007F887
:10213000011DB8F10001A8F10108F2DC02980028A5
:10214000EFD1791E0E980870307800F0200040F032
:10215000450007F8020D12A8C01B00F107081498EB
:10216000007800B1012000EB0A01019801EBE07159
:1021700005984144401A401E0590E00306D45B4692
:102180002146179A059800F05DF8054414980078E8
:1021900018B15A46179990476D1CE00324D55B4649
:1021A0002146179A059800F04DF805441CE0049864
:1021B000002807DBDDE90301884203DD0098405C6D
:1021C000179901E0179930205A469047049805F175
:1021D0000105401C04900198401E019004D12E205E
:1021E0005A46179990476D1CBAF10001AAF1010AED
:1021F000DDDC05E017F8010B5A46179990476D1C76
:10220000B8F10001A8F10108F4DC5B462146179AF9
:102210000598ABE62D0000002B0000002000000018
:102220002DE9F041044600251E461746880404D4D3
:1022300005E039462020B0476D1C641EF9D52846BC
:10224000BDE8F0812DE9F041044600251E46904688
:10225000C80301D5302700E02027880404D505E015
:1022600041463846B0476D1C641EF9D52846BDE886
:10227000F08170B504460D46E0B2FEF70DFF204632
:1022800070BD00002DE9F05F04460D46294620464A
:10229000FDF79AFF20490860204801684FF0804010
:1022A000FDF798FF83461C4801685846FDF78FFFED
:1022B00082461B4801685046FDF734FF81461948A5
:1022C00001684846FDF786FF07461448016816482E
:1022D0000068FDF77FFF8246104801680E480068DD
:1022E000FDF772FF8346114801685846FDF772FFFB
:1022F00081465146FDF716FF80463946FDF712FF2D
:102300000646054800680549086008460068044913
:1023100008603046BDE8F09F4400002048000020DF
:102320004C000020400000203C000020380000202D
:1023300008B5FEF7E9FEFFF7DBF9FEF763FCCAE03C
:1023400065480078401C644908706448007800289B
:102350007ED000206249086000247CE0614800785B
:10236000012831D160480078012814D121460A2083
:10237000FEF7A2FE5D49095D303900FB01F63046EB
:10238000FEF720F90546564801682846FDF71FFF6D
:10239000534908604DE054480078022849D121464D
:1023A0000A20FEF789FE5149095D303900FB01F62C
:1023B0003046FEF707F90546494801682846FDF70B
:1023C000B1FE4749086034E046480078022830D121
:1023D00045480078012814D121460A20FEF76CFEFA
:1023E0004249095D303900FB01F63046FEF7EAF854
:1023F00005463F4801682846FDF7E9FE3C4908606C
:1024000017E039480078022813D121460A20FEF748
:1024100053FE3649095D303900FB01F63046FEF7C0
:10242000D1F80546324801682846FDF77BFE304961
:102430000860082000902D48005DA0F130020020C7
:1024400000EB04110123FEF7EDFCFEF749FD00E06F
:102450000CE0601CC4B2274800788442FFF67EAFCF
:102460000020244908701D49087000BF00211C4845
:102470000068FFF707FF20490860084601681F4809
:102480000068FDF74FFE1D490860002118480068EC
:10249000FFF7F8FE1A490860084601681948006805
:1024A000FDF740FE1749086014480068FEF736FE45
:1024B00014480068FEF752FE0F480068FEF78BF8DC
:1024C0000446082005232246102100900846FEF706
:1024D000CFFCFEF705FD33E72C00002014000020A0
:1024E00030000020180000201900002054040020B3
:1024F0003400002016000020240000201C000020D2
:102500002800002020000020000000000000000043
:102510000000000000000000000000F800000000C3
:10252000000000333000000000160E00160E000000
:10253000000000000000000040C07840C07840006B
:10254000043F04043F040400007088FC08300000CD
:10255000001820FF211E0000F008F000E018000025
:1025600000211C031E211E0000F0088870000000DE
:102570001E21232419272110000000160E00000040
:102580000000000000000000000000E0180402004D
:10259000000000071820400000020418E0000000BE
:1025A0000040201807000000404080F080404000BC
:1025B0000202010F01020200000000F00000000012
:1025C0000101011F010101000000000000000000E6
:1025D00000B07000000000000000000000000000DB
:1025E00000010101010101010000000000000000E4
:1025F000003030000000000000000000806018047F
:10260000006018060100000000E010080810E0005B
:10261000000F102020100F00001010F80000000024
:102620000020203F2020000000700808088870006B
:1026300000302824222130000030088888483000EB
:102640000018202020110E000000C02010F800000B
:1026500000070424243F240000F8088888080800A4
:102660000019212020110E0000E0108888180000B9
:10267000000F112020110E0000380808C83808008B
:102680000000003F0000000000708808088870000B
:10269000001C222121221C0000E010080810E0008C
:1026A0000000312222110F00000000C0C000000015
:1026B0000000003030000000000000C0C00000003A
:1026C000000080B070000000000080402010080072
:1026D00000010204081020004040404040404000FB
:1026E00004040404040404000008102040800000D6
:1026F0000020100804020100007048080808F000DB
:102700000000003036010000C030C828E810E000AA
:102710000718272423140B000000C038E000000035
:10272000203C23020227382008F88888887000009F
:10273000203F202020110E00C03008080808380073
:10274000071820202010080008F808080810E000EA
:10275000203F202020100F0008F88888E80810008B
:10276000203F20202320180008F88888E80810005F
:10277000203F200003000000C03008080838000097
:1027800007182020221E020008F808000008F80898
:10279000203F210101213F20000808F8080800001F
:1027A0000020203F2020000000000808F808080052
:1027B000C08080807F00000008F888C028180800CA
:1027C000203F20012638200008F808000000000003
:1027D000203F20202020300008F8F800F8F80800FA
:1027E000203F003F003F200008F830C00008F808F4
:1027F000203F200007183F00E01008080810E00004
:102800000F10202020100F0008F808080808F0001A
:10281000203F210101010000E01008080810E0003D
:102820000F18242438504F0008F8888888887000D2
:10283000203F2000030C3020007088080808380072
:102840000038202121221C00180808F80808180068
:102850000000203F2000000008F808000008F808E9
:10286000001F202020201F000878880000C838089A
:10287000000007380E010000F80800F80008F80012
:10288000033C0700073C03000818688080681808AC
:1028900020302C03032C30200838C800C83808002A
:1028A0000000203F2000000010080808C838080079
:1028B0002038262120201800000000FE020202001D
:1028C0000000007F40404000000C30C000000000CD
:1028D000000000010638C00000020202FE000000F5
:1028E000004040407F000000002010080408102035
:1028F00000000000000000000000000000000000D8
:1029000080808080808080800002040800000000B9
:1029100000000000000000000000808080800000B7
:102920000019242222223F2008F8008080000000A5
:10293000003F112020110E00000000808080000068
:10294000000E112020201100000000808088F80077
:10295000000E112020103F200000808080800000A9
:10296000001F222222221300008080F0888888180D
:102970000020203F20200000000080808080800018
:10298000006B94949493600008F8008080800000AD
:10299000203F210000203F20008098980000000088
:1029A0000020203F202000000000008098980000B8
:1029B00000C08080807F000008F8000080808000D8
:1029C000203F24022D302000000808F800000000FD
:1029D0000020203F202000008080808080808000B8
:1029E000203F20003F20003F0080800080800000CA
:1029F00000203F2100203F200000808080800000D8
:102A0000001F202020201F00808000808000000008
:102A100080FFA12020110E00000000808080800037
:102A2000000E112020A0FF80808080008080800028
:102A300020203F2120000100000080808080800055
:102A40000033242424241900008080E080800000CA
:102A50000000001F20200000808000000080800017
:102A6000001F202020103F20808080000080808078
:102A700000010E3008060100808000800080808008
:102A80000F300C030C300F0000808000808080002D
:102A90000020312E0E312000808080000080808058
:102AA00080818E7018060100008080808080800008
:102AB0000021302C2221300000000000807C020226
:102AC00000000000003F404000000000FF00000048
:102AD00000000000FF0000000002027C80000000F7
:102AE0000040403F00000000008040408000008027
:102AF00000000000000101000000000000000000D4
:102B0000002F000000000700070000147F147F144E
:102B100000242A7F2A1200231308646200364955D4
:102B2000225000000007000000001C2241000000AD
:102B300041221C000014083E08140008083E080842
:102B4000000000A06000000808080808000060609D
:102B50000000002010080402003E5149453E0000DC
:102B6000427F4000004261514946002141454B31BE
:102B7000001814127F10002745454539003C4A498A
:102B800049300001710905030036494949360006FC
:102B90004949291E00003636000000005636000064
:102BA00000081422410000141414141400004122DF
:102BB0001408000201510906003E4955592E007CB7
:102BC0001211127C007F49494936003E41414122A1
:102BD000007F4141221C007F49494941007F09098A
:102BE0000901003E4149497A007F0808087F00003A
:102BF000417F4100002040413F01007F08142241F5
:102C0000007F40404040007F020C027F007F0408AC
:102C1000107F003E4141413E007F09090906003E08
:102C20004151215E007F0919294600464949493131
:102C30000001017F0101003F4040403F001F204054
:102C4000201F003F4038403F006314081463000712
:102C50000870080700615149454300007F41410069
:102C6000000204081020000041417F00000402011E
:102C700002040040404040400000010204000020E7
:102C800054545478007F4844443800384444442025
:102C900000384444487F00385454541800087E09D2
:102CA00001020018A4A4A47C007F0804047800009A
:102CB000447D4000004080847D00007F1028440057
:102CC0000000417F4000007C04180478007C080468
:102CD000047800384444443800FC242424180018A4
:102CE000242418FC007C0804040800485454542090
:102CF00000043F444020003C4040207C001C204019
:102D0000201C003C4030403C004428102844001C5B
:102D1000A0A0A07C004464544C440000087F410003
:102D20000000007F00000000417F08000008040848
:102D300010080000542D000800000020540000007E
:102D4000A0190008A82D0008540000206408000005
:102D5000B01900080000000001020304010203048E
:102D60000607080902040608000000000000000031
:102D70000000B4420000F04100000000000000002C
:102D80000000000000000000000000000AD7A33C83
:102D90000AD7233C0AD7233C0000000000000000B3
:082DA00000000000000000002B
:04000005080000ED02
:00000001FF
